{
  "_format": "hh-sol-artifact-1",
  "contractName": "DeviceHelper",
  "sourceName": "contracts/DeviceHelper.sol",
  "abi": [
    {
      "anonymous": false,
      "inputs": [
        {
          "indexed": true,
          "internalType": "uint256",
          "name": "deviceId",
          "type": "uint256"
        },
        {
          "indexed": false,
          "internalType": "string",
          "name": "name",
          "type": "string"
        },
        {
          "indexed": false,
          "internalType": "string",
          "name": "localisation",
          "type": "string"
        },
        {
          "indexed": false,
          "internalType": "enum DeviceFactory.Status",
          "name": "status",
          "type": "uint8"
        }
      ],
      "name": "NewDevice",
      "type": "event"
    },
    {
      "anonymous": false,
      "inputs": [
        {
          "indexed": true,
          "internalType": "address",
          "name": "previousOwner",
          "type": "address"
        },
        {
          "indexed": true,
          "internalType": "address",
          "name": "newOwner",
          "type": "address"
        }
      ],
      "name": "OwnershipTransferred",
      "type": "event"
    },
    {
      "inputs": [
        {
          "internalType": "uint256",
          "name": "_deviceId",
          "type": "uint256"
        },
        {
          "internalType": "string",
          "name": "_newName",
          "type": "string"
        }
      ],
      "name": "changeName",
      "outputs": [],
      "stateMutability": "nonpayable",
      "type": "function"
    },
    {
      "inputs": [
        {
          "internalType": "string",
          "name": "_name",
          "type": "string"
        },
        {
          "internalType": "string",
          "name": "_localisation",
          "type": "string"
        },
        {
          "internalType": "enum DeviceFactory.Status",
          "name": "_status",
          "type": "uint8"
        }
      ],
      "name": "createDevice",
      "outputs": [],
      "stateMutability": "nonpayable",
      "type": "function"
    },
    {
      "inputs": [
        {
          "internalType": "uint256",
          "name": "",
          "type": "uint256"
        }
      ],
      "name": "deviceToOwner",
      "outputs": [
        {
          "internalType": "address",
          "name": "",
          "type": "address"
        }
      ],
      "stateMutability": "view",
      "type": "function"
    },
    {
      "inputs": [
        {
          "internalType": "uint256",
          "name": "",
          "type": "uint256"
        }
      ],
      "name": "devices",
      "outputs": [
        {
          "internalType": "string",
          "name": "name",
          "type": "string"
        },
        {
          "internalType": "string",
          "name": "localisation",
          "type": "string"
        },
        {
          "internalType": "enum DeviceFactory.Status",
          "name": "status",
          "type": "uint8"
        }
      ],
      "stateMutability": "view",
      "type": "function"
    },
    {
      "inputs": [
        {
          "internalType": "address",
          "name": "_owner",
          "type": "address"
        }
      ],
      "name": "getDeviceByOwner",
      "outputs": [
        {
          "internalType": "uint256[]",
          "name": "",
          "type": "uint256[]"
        }
      ],
      "stateMutability": "view",
      "type": "function"
    },
    {
      "inputs": [],
      "name": "isOwner",
      "outputs": [
        {
          "internalType": "bool",
          "name": "",
          "type": "bool"
        }
      ],
      "stateMutability": "view",
      "type": "function"
    },
    {
      "inputs": [],
      "name": "owner",
      "outputs": [
        {
          "internalType": "address",
          "name": "",
          "type": "address"
        }
      ],
      "stateMutability": "view",
      "type": "function"
    },
    {
      "inputs": [],
      "name": "renounceOwnership",
      "outputs": [],
      "stateMutability": "nonpayable",
      "type": "function"
    },
    {
      "inputs": [
        {
          "internalType": "address",
          "name": "newOwner",
          "type": "address"
        }
      ],
      "name": "transferOwnership",
      "outputs": [],
      "stateMutability": "nonpayable",
      "type": "function"
    }
  ],
  "bytecode": "0x608060405234801561001057600080fd5b50336000806101000a81548173ffffffffffffffffffffffffffffffffffffffff021916908373ffffffffffffffffffffffffffffffffffffffff16021790555060008054906101000a900473ffffffffffffffffffffffffffffffffffffffff1673ffffffffffffffffffffffffffffffffffffffff16600073ffffffffffffffffffffffffffffffffffffffff167f8be0079c531659141344cd1fd0a4f28419497f9722a3daafe3b4186f6b6457e060405160405180910390a361128a806100db6000396000f3fe608060405234801561001057600080fd5b50600436106100935760003560e01c80638f32d59b116100665780638f32d59b14610122578063b5deb32414610140578063c39cbef11461015c578063c9ffce7e14610178578063f2fde38b146101a857610093565b806310ff8e311461009857806330e6b43d146100ca578063715018a6146100fa5780638da5cb5b14610104575b600080fd5b6100b260048036038101906100ad9190610cc6565b6101c4565b6040516100c193929190610e86565b60405180910390f35b6100e460048036038101906100df9190610c1e565b61031b565b6040516100f19190610e49565b60405180910390f35b6101026104ba565b005b61010c610589565b6040516101199190610e2e565b60405180910390f35b61012a6105b2565b6040516101379190610e6b565b60405180910390f35b61015a60048036038101906101559190610c47565b610609565b005b61017660048036038101906101719190610cef565b61081d565b005b610192600480360381019061018d9190610cc6565b6108ee565b60405161019f9190610e2e565b60405180910390f35b6101c260048036038101906101bd9190610c1e565b610921565b005b600181815481106101d457600080fd5b90600052602060002090600302016000915090508060000180546101f7906110ba565b80601f0160208091040260200160405190810160405280929190818152602001828054610223906110ba565b80156102705780601f1061024557610100808354040283529160200191610270565b820191906000526020600020905b81548152906001019060200180831161025357829003601f168201915b505050505090806001018054610285906110ba565b80601f01602080910402602001604051908101604052809291908181526020018280546102b1906110ba565b80156102fe5780601f106102d3576101008083540402835291602001916102fe565b820191906000526020600020905b8154815290600101906020018083116102e157829003601f168201915b5050505050908060020160009054906101000a900460ff16905083565b60606000600360008473ffffffffffffffffffffffffffffffffffffffff1673ffffffffffffffffffffffffffffffffffffffff1681526020019081526020016000205467ffffffffffffffff81111561039e577f4e487b7100000000000000000000000000000000000000000000000000000000600052604160045260246000fd5b6040519080825280602002602001820160405280156103cc5781602001602082028036833780820191505090505b5090506000805b6001805490508110156104af578473ffffffffffffffffffffffffffffffffffffffff166002600083815260200190815260200160002060009054906101000a900473ffffffffffffffffffffffffffffffffffffffff1673ffffffffffffffffffffffffffffffffffffffff16141561049c5780838381518110610481577f4e487b7100000000000000000000000000000000000000000000000000000000600052603260045260246000fd5b6020026020010181815250508180610498906110ec565b9250505b80806104a7906110ec565b9150506103d3565b508192505050919050565b6104c26105b2565b6104cb57600080fd5b600073ffffffffffffffffffffffffffffffffffffffff1660008054906101000a900473ffffffffffffffffffffffffffffffffffffffff1673ffffffffffffffffffffffffffffffffffffffff167f8be0079c531659141344cd1fd0a4f28419497f9722a3daafe3b4186f6b6457e060405160405180910390a360008060006101000a81548173ffffffffffffffffffffffffffffffffffffffff021916908373ffffffffffffffffffffffffffffffffffffffff160217905550565b60008060009054906101000a900473ffffffffffffffffffffffffffffffffffffffff16905090565b60008060009054906101000a900473ffffffffffffffffffffffffffffffffffffffff1673ffffffffffffffffffffffffffffffffffffffff163373ffffffffffffffffffffffffffffffffffffffff1614905090565b6001604051806060016040528085815260200184815260200183600181111561065b577f4e487b7100000000000000000000000000000000000000000000000000000000600052602160045260246000fd5b815250908060018154018082558091505060019003906000526020600020906003020160009091909190915060008201518160000190805190602001906106a3929190610ad4565b5060208201518160010190805190602001906106c0929190610ad4565b5060408201518160020160006101000a81548160ff02191690836001811115610712577f4e487b7100000000000000000000000000000000000000000000000000000000600052602160045260246000fd5b0217905550505060006107336001808054905061093e90919063ffffffff16565b9050336002600083815260200190815260200160002060006101000a81548173ffffffffffffffffffffffffffffffffffffffff021916908373ffffffffffffffffffffffffffffffffffffffff1602179055506107da6001600360003373ffffffffffffffffffffffffffffffffffffffff1673ffffffffffffffffffffffffffffffffffffffff1681526020019081526020016000205461098b90919063ffffffff16565b50807f472f7a60d569a042d12006fd6c9aea3f09ce5c8677c6bcb9c7662499678dfc5c85858560405161080f93929190610e86565b60405180910390a250505050565b816002600082815260200190815260200160002060009054906101000a900473ffffffffffffffffffffffffffffffffffffffff1673ffffffffffffffffffffffffffffffffffffffff163373ffffffffffffffffffffffffffffffffffffffff161461088957600080fd5b81600184815481106108c4577f4e487b7100000000000000000000000000000000000000000000000000000000600052603260045260246000fd5b906000526020600020906003020160000190805190602001906108e8929190610ad4565b50505050565b60026020528060005260406000206000915054906101000a900473ffffffffffffffffffffffffffffffffffffffff1681565b6109296105b2565b61093257600080fd5b61093b816109dd565b50565b600082821115610977577f4e487b7100000000000000000000000000000000000000000000000000000000600052600160045260246000fd5b81836109839190610fd7565b905092915050565b600080828461099a9190610f81565b9050838110156109d3577f4e487b7100000000000000000000000000000000000000000000000000000000600052600160045260246000fd5b8091505092915050565b600073ffffffffffffffffffffffffffffffffffffffff168173ffffffffffffffffffffffffffffffffffffffff161415610a1757600080fd5b8073ffffffffffffffffffffffffffffffffffffffff1660008054906101000a900473ffffffffffffffffffffffffffffffffffffffff1673ffffffffffffffffffffffffffffffffffffffff167f8be0079c531659141344cd1fd0a4f28419497f9722a3daafe3b4186f6b6457e060405160405180910390a3806000806101000a81548173ffffffffffffffffffffffffffffffffffffffff021916908373ffffffffffffffffffffffffffffffffffffffff16021790555050565b828054610ae0906110ba565b90600052602060002090601f016020900481019282610b025760008555610b49565b82601f10610b1b57805160ff1916838001178555610b49565b82800160010185558215610b49579182015b82811115610b48578251825591602001919060010190610b2d565b5b509050610b569190610b5a565b5090565b5b80821115610b73576000816000905550600101610b5b565b5090565b6000610b8a610b8584610efc565b610ecb565b905082815260208101848484011115610ba257600080fd5b610bad848285611078565b509392505050565b600081359050610bc481611216565b92915050565b600081359050610bd98161122d565b92915050565b600082601f830112610bf057600080fd5b8135610c00848260208601610b77565b91505092915050565b600081359050610c188161123d565b92915050565b600060208284031215610c3057600080fd5b6000610c3e84828501610bb5565b91505092915050565b600080600060608486031215610c5c57600080fd5b600084013567ffffffffffffffff811115610c7657600080fd5b610c8286828701610bdf565b935050602084013567ffffffffffffffff811115610c9f57600080fd5b610cab86828701610bdf565b9250506040610cbc86828701610bca565b9150509250925092565b600060208284031215610cd857600080fd5b6000610ce684828501610c09565b91505092915050565b60008060408385031215610d0257600080fd5b6000610d1085828601610c09565b925050602083013567ffffffffffffffff811115610d2d57600080fd5b610d3985828601610bdf565b9150509250929050565b6000610d4f8383610e1f565b60208301905092915050565b610d648161100b565b82525050565b6000610d7582610f3c565b610d7f8185610f5f565b9350610d8a83610f2c565b8060005b83811015610dbb578151610da28882610d43565b9750610dad83610f52565b925050600181019050610d8e565b5085935050505092915050565b610dd18161101d565b82525050565b610de081611066565b82525050565b6000610df182610f47565b610dfb8185610f70565b9350610e0b818560208601611087565b610e14816111f1565b840191505092915050565b610e288161105c565b82525050565b6000602082019050610e436000830184610d5b565b92915050565b60006020820190508181036000830152610e638184610d6a565b905092915050565b6000602082019050610e806000830184610dc8565b92915050565b60006060820190508181036000830152610ea08186610de6565b90508181036020830152610eb48185610de6565b9050610ec36040830184610dd7565b949350505050565b6000604051905081810181811067ffffffffffffffff82111715610ef257610ef16111c2565b5b8060405250919050565b600067ffffffffffffffff821115610f1757610f166111c2565b5b601f19601f8301169050602081019050919050565b6000819050602082019050919050565b600081519050919050565b600081519050919050565b6000602082019050919050565b600082825260208201905092915050565b600082825260208201905092915050565b6000610f8c8261105c565b9150610f978361105c565b9250827fffffffffffffffffffffffffffffffffffffffffffffffffffffffffffffffff03821115610fcc57610fcb611135565b5b828201905092915050565b6000610fe28261105c565b9150610fed8361105c565b92508282101561100057610fff611135565b5b828203905092915050565b60006110168261103c565b9050919050565b60008115159050919050565b600081905061103782611202565b919050565b600073ffffffffffffffffffffffffffffffffffffffff82169050919050565b6000819050919050565b600061107182611029565b9050919050565b82818337600083830152505050565b60005b838110156110a557808201518184015260208101905061108a565b838111156110b4576000848401525b50505050565b600060028204905060018216806110d257607f821691505b602082108114156110e6576110e5611193565b5b50919050565b60006110f78261105c565b91507fffffffffffffffffffffffffffffffffffffffffffffffffffffffffffffffff82141561112a57611129611135565b5b600182019050919050565b7f4e487b7100000000000000000000000000000000000000000000000000000000600052601160045260246000fd5b7f4e487b7100000000000000000000000000000000000000000000000000000000600052602160045260246000fd5b7f4e487b7100000000000000000000000000000000000000000000000000000000600052602260045260246000fd5b7f4e487b7100000000000000000000000000000000000000000000000000000000600052604160045260246000fd5b6000601f19601f8301169050919050565b6002811061121357611212611164565b5b50565b61121f8161100b565b811461122a57600080fd5b50565b6002811061123a57600080fd5b50565b6112468161105c565b811461125157600080fd5b5056fea2646970667358221220fc07cfeb29e52ca3adeca62263af9275351c7fb90938d2681dd271e5b5f7b75a64736f6c63430008000033",
  "linkReferences": {},
  "deployedLinkReferences": {}
}