{
  "_format": "hh-sol-artifact-1",
  "contractName": "DeviceReport",
  "sourceName": "contracts/DeviceReport.sol",
  "abi": [
    {
      "anonymous": false,
      "inputs": [
        {
          "indexed": true,
          "internalType": "uint256",
          "name": "deviceId",
          "type": "uint256"
        },
        {
          "indexed": false,
          "internalType": "string",
          "name": "name",
          "type": "string"
        },
        {
          "indexed": false,
          "internalType": "string",
          "name": "localisation",
          "type": "string"
        },
        {
          "indexed": false,
          "internalType": "enum DeviceFactory.Status",
          "name": "status",
          "type": "uint8"
        }
      ],
      "name": "NewDevice",
      "type": "event"
    },
    {
      "anonymous": false,
      "inputs": [
        {
          "indexed": true,
          "internalType": "uint256",
          "name": "reportId",
          "type": "uint256"
        },
        {
          "indexed": true,
          "internalType": "uint256",
          "name": "deviceId",
          "type": "uint256"
        },
        {
          "indexed": false,
          "internalType": "uint256",
          "name": "date",
          "type": "uint256"
        },
        {
          "indexed": false,
          "internalType": "enum DeviceReport.Severity",
          "name": "severity",
          "type": "uint8"
        }
      ],
      "name": "NewReport",
      "type": "event"
    },
    {
      "anonymous": false,
      "inputs": [
        {
          "indexed": true,
          "internalType": "address",
          "name": "previousOwner",
          "type": "address"
        },
        {
          "indexed": true,
          "internalType": "address",
          "name": "newOwner",
          "type": "address"
        }
      ],
      "name": "OwnershipTransferred",
      "type": "event"
    },
    {
      "inputs": [
        {
          "internalType": "uint256",
          "name": "_deviceId",
          "type": "uint256"
        },
        {
          "internalType": "string",
          "name": "_newName",
          "type": "string"
        }
      ],
      "name": "changeName",
      "outputs": [],
      "stateMutability": "nonpayable",
      "type": "function"
    },
    {
      "inputs": [
        {
          "internalType": "string",
          "name": "_name",
          "type": "string"
        },
        {
          "internalType": "string",
          "name": "_localisation",
          "type": "string"
        },
        {
          "internalType": "enum DeviceFactory.Status",
          "name": "_status",
          "type": "uint8"
        }
      ],
      "name": "createDevice",
      "outputs": [],
      "stateMutability": "nonpayable",
      "type": "function"
    },
    {
      "inputs": [
        {
          "internalType": "uint256",
          "name": "_deviceId",
          "type": "uint256"
        },
        {
          "internalType": "enum DeviceReport.Severity",
          "name": "_severity",
          "type": "uint8"
        }
      ],
      "name": "deviceCreateReport",
      "outputs": [],
      "stateMutability": "nonpayable",
      "type": "function"
    },
    {
      "inputs": [
        {
          "internalType": "uint256",
          "name": "",
          "type": "uint256"
        }
      ],
      "name": "deviceReportCount",
      "outputs": [
        {
          "internalType": "uint256",
          "name": "",
          "type": "uint256"
        }
      ],
      "stateMutability": "view",
      "type": "function"
    },
    {
      "inputs": [
        {
          "internalType": "uint256",
          "name": "",
          "type": "uint256"
        }
      ],
      "name": "deviceToOwner",
      "outputs": [
        {
          "internalType": "address",
          "name": "",
          "type": "address"
        }
      ],
      "stateMutability": "view",
      "type": "function"
    },
    {
      "inputs": [
        {
          "internalType": "uint256",
          "name": "",
          "type": "uint256"
        }
      ],
      "name": "devices",
      "outputs": [
        {
          "internalType": "string",
          "name": "name",
          "type": "string"
        },
        {
          "internalType": "string",
          "name": "localisation",
          "type": "string"
        },
        {
          "internalType": "enum DeviceFactory.Status",
          "name": "status",
          "type": "uint8"
        }
      ],
      "stateMutability": "view",
      "type": "function"
    },
    {
      "inputs": [
        {
          "internalType": "address",
          "name": "_owner",
          "type": "address"
        }
      ],
      "name": "getDeviceByOwner",
      "outputs": [
        {
          "internalType": "uint256[]",
          "name": "",
          "type": "uint256[]"
        }
      ],
      "stateMutability": "view",
      "type": "function"
    },
    {
      "inputs": [],
      "name": "isOwner",
      "outputs": [
        {
          "internalType": "bool",
          "name": "",
          "type": "bool"
        }
      ],
      "stateMutability": "view",
      "type": "function"
    },
    {
      "inputs": [],
      "name": "owner",
      "outputs": [
        {
          "internalType": "address",
          "name": "",
          "type": "address"
        }
      ],
      "stateMutability": "view",
      "type": "function"
    },
    {
      "inputs": [],
      "name": "renounceOwnership",
      "outputs": [],
      "stateMutability": "nonpayable",
      "type": "function"
    },
    {
      "inputs": [
        {
          "internalType": "uint256",
          "name": "",
          "type": "uint256"
        }
      ],
      "name": "reportToDevice",
      "outputs": [
        {
          "internalType": "uint256",
          "name": "",
          "type": "uint256"
        }
      ],
      "stateMutability": "view",
      "type": "function"
    },
    {
      "inputs": [
        {
          "internalType": "uint256",
          "name": "",
          "type": "uint256"
        }
      ],
      "name": "reports",
      "outputs": [
        {
          "internalType": "uint256",
          "name": "device",
          "type": "uint256"
        },
        {
          "internalType": "uint256",
          "name": "date",
          "type": "uint256"
        },
        {
          "internalType": "enum DeviceReport.Severity",
          "name": "severity",
          "type": "uint8"
        }
      ],
      "stateMutability": "view",
      "type": "function"
    },
    {
      "inputs": [
        {
          "internalType": "address",
          "name": "newOwner",
          "type": "address"
        }
      ],
      "name": "transferOwnership",
      "outputs": [],
      "stateMutability": "nonpayable",
      "type": "function"
    }
  ],
  "bytecode": "0x608060405234801561001057600080fd5b50336000806101000a81548173ffffffffffffffffffffffffffffffffffffffff021916908373ffffffffffffffffffffffffffffffffffffffff16021790555060008054906101000a900473ffffffffffffffffffffffffffffffffffffffff1673ffffffffffffffffffffffffffffffffffffffff16600073ffffffffffffffffffffffffffffffffffffffff167f8be0079c531659141344cd1fd0a4f28419497f9722a3daafe3b4186f6b6457e060405160405180910390a3611720806100db6000396000f3fe608060405234801561001057600080fd5b50600436106100cf5760003560e01c80638da5cb5b1161008c578063c39cbef111610066578063c39cbef114610214578063c942adf714610230578063c9ffce7e14610262578063f2fde38b14610292576100cf565b80638da5cb5b146101bc5780638f32d59b146101da578063b5deb324146101f8576100cf565b806310ff8e31146100d457806316ef05381461010657806317f328201461012257806322d321e51461015257806330e6b43d14610182578063715018a6146101b2575b600080fd5b6100ee60048036038101906100e9919061103e565b6102ae565b6040516100fd93929190611258565b60405180910390f35b610120600480360381019061011b9190611067565b610405565b005b61013c6004803603810190610137919061103e565b610480565b604051610149919061129d565b60405180910390f35b61016c6004803603810190610167919061103e565b610498565b604051610179919061129d565b60405180910390f35b61019c60048036038101906101979190610f96565b6104b0565b6040516101a9919061121b565b60405180910390f35b6101ba61064f565b005b6101c461071e565b6040516101d19190611200565b60405180910390f35b6101e2610747565b6040516101ef919061123d565b60405180910390f35b610212600480360381019061020d9190610fbf565b61079e565b005b61022e600480360381019061022991906110a3565b6109b2565b005b61024a6004803603810190610245919061103e565b610a83565b604051610259939291906112e1565b60405180910390f35b61027c6004803603810190610277919061103e565b610aca565b6040516102899190611200565b60405180910390f35b6102ac60048036038101906102a79190610f96565b610afd565b005b600181815481106102be57600080fd5b90600052602060002090600302016000915090508060000180546102e19061152c565b80601f016020809104026020016040519081016040528092919081815260200182805461030d9061152c565b801561035a5780601f1061032f5761010080835404028352916020019161035a565b820191906000526020600020905b81548152906001019060200180831161033d57829003601f168201915b50505050509080600101805461036f9061152c565b80601f016020809104026020016040519081016040528092919081815260200182805461039b9061152c565b80156103e85780601f106103bd576101008083540402835291602001916103e8565b820191906000526020600020905b8154815290600101906020018083116103cb57829003601f168201915b5050505050908060020160009054906101000a900460ff16905083565b816002600082815260200190815260200160002060009054906101000a900473ffffffffffffffffffffffffffffffffffffffff1673ffffffffffffffffffffffffffffffffffffffff163373ffffffffffffffffffffffffffffffffffffffff161461047157600080fd5b61047b8383610b1a565b505050565b60066020528060005260406000206000915090505481565b60056020528060005260406000206000915090505481565b60606000600360008473ffffffffffffffffffffffffffffffffffffffff1673ffffffffffffffffffffffffffffffffffffffff1681526020019081526020016000205467ffffffffffffffff811115610533577f4e487b7100000000000000000000000000000000000000000000000000000000600052604160045260246000fd5b6040519080825280602002602001820160405280156105615781602001602082028036833780820191505090505b5090506000805b600180549050811015610644578473ffffffffffffffffffffffffffffffffffffffff166002600083815260200190815260200160002060009054906101000a900473ffffffffffffffffffffffffffffffffffffffff1673ffffffffffffffffffffffffffffffffffffffff1614156106315780838381518110610616577f4e487b7100000000000000000000000000000000000000000000000000000000600052603260045260246000fd5b602002602001018181525050818061062d9061155e565b9250505b808061063c9061155e565b915050610568565b508192505050919050565b610657610747565b61066057600080fd5b600073ffffffffffffffffffffffffffffffffffffffff1660008054906101000a900473ffffffffffffffffffffffffffffffffffffffff1673ffffffffffffffffffffffffffffffffffffffff167f8be0079c531659141344cd1fd0a4f28419497f9722a3daafe3b4186f6b6457e060405160405180910390a360008060006101000a81548173ffffffffffffffffffffffffffffffffffffffff021916908373ffffffffffffffffffffffffffffffffffffffff160217905550565b60008060009054906101000a900473ffffffffffffffffffffffffffffffffffffffff16905090565b60008060009054906101000a900473ffffffffffffffffffffffffffffffffffffffff1673ffffffffffffffffffffffffffffffffffffffff163373ffffffffffffffffffffffffffffffffffffffff1614905090565b600160405180606001604052808581526020018481526020018360018111156107f0577f4e487b7100000000000000000000000000000000000000000000000000000000600052602160045260246000fd5b81525090806001815401808255809150506001900390600052602060002090600302016000909190919091506000820151816000019080519060200190610838929190610e37565b506020820151816001019080519060200190610855929190610e37565b5060408201518160020160006101000a81548160ff021916908360018111156108a7577f4e487b7100000000000000000000000000000000000000000000000000000000600052602160045260246000fd5b0217905550505060006108c860018080549050610ca190919063ffffffff16565b9050336002600083815260200190815260200160002060006101000a81548173ffffffffffffffffffffffffffffffffffffffff021916908373ffffffffffffffffffffffffffffffffffffffff16021790555061096f6001600360003373ffffffffffffffffffffffffffffffffffffffff1673ffffffffffffffffffffffffffffffffffffffff16815260200190815260200160002054610cee90919063ffffffff16565b50807f472f7a60d569a042d12006fd6c9aea3f09ce5c8677c6bcb9c7662499678dfc5c8585856040516109a493929190611258565b60405180910390a250505050565b816002600082815260200190815260200160002060009054906101000a900473ffffffffffffffffffffffffffffffffffffffff1673ffffffffffffffffffffffffffffffffffffffff163373ffffffffffffffffffffffffffffffffffffffff1614610a1e57600080fd5b8160018481548110610a59577f4e487b7100000000000000000000000000000000000000000000000000000000600052603260045260246000fd5b90600052602060002090600302016000019080519060200190610a7d929190610e37565b50505050565b60048181548110610a9357600080fd5b90600052602060002090600302016000915090508060000154908060010154908060020160009054906101000a900460ff16905083565b60026020528060005260406000206000915054906101000a900473ffffffffffffffffffffffffffffffffffffffff1681565b610b05610747565b610b0e57600080fd5b610b1781610d40565b50565b600042905060046040518060600160405280858152602001838152602001846001811115610b71577f4e487b7100000000000000000000000000000000000000000000000000000000600052602160045260246000fd5b8152509080600181540180825580915050600190039060005260206000209060030201600090919091909150600082015181600001556020820151816001015560408201518160020160006101000a81548160ff02191690836001811115610c02577f4e487b7100000000000000000000000000000000000000000000000000000000600052602160045260246000fd5b0217905550505060006001600480549050610c1d9190611424565b9050836005600083815260200190815260200160002081905550600660008581526020019081526020016000206000815480929190610c5b9061155e565b919050555083817f1e5241f1f006b9da17bcd151dba26e64234927937538b11fa2cc8bc1a2d8e4088486604051610c939291906112b8565b60405180910390a350505050565b600082821115610cda577f4e487b7100000000000000000000000000000000000000000000000000000000600052600160045260246000fd5b8183610ce69190611424565b905092915050565b6000808284610cfd91906113ce565b905083811015610d36577f4e487b7100000000000000000000000000000000000000000000000000000000600052600160045260246000fd5b8091505092915050565b600073ffffffffffffffffffffffffffffffffffffffff168173ffffffffffffffffffffffffffffffffffffffff161415610d7a57600080fd5b8073ffffffffffffffffffffffffffffffffffffffff1660008054906101000a900473ffffffffffffffffffffffffffffffffffffffff1673ffffffffffffffffffffffffffffffffffffffff167f8be0079c531659141344cd1fd0a4f28419497f9722a3daafe3b4186f6b6457e060405160405180910390a3806000806101000a81548173ffffffffffffffffffffffffffffffffffffffff021916908373ffffffffffffffffffffffffffffffffffffffff16021790555050565b828054610e439061152c565b90600052602060002090601f016020900481019282610e655760008555610eac565b82601f10610e7e57805160ff1916838001178555610eac565b82800160010185558215610eac579182015b82811115610eab578251825591602001919060010190610e90565b5b509050610eb99190610ebd565b5090565b5b80821115610ed6576000816000905550600101610ebe565b5090565b6000610eed610ee884611349565b611318565b905082815260208101848484011115610f0557600080fd5b610f108482856114ea565b509392505050565b600081359050610f278161169c565b92915050565b600081359050610f3c816116b3565b92915050565b600081359050610f51816116c3565b92915050565b600082601f830112610f6857600080fd5b8135610f78848260208601610eda565b91505092915050565b600081359050610f90816116d3565b92915050565b600060208284031215610fa857600080fd5b6000610fb684828501610f18565b91505092915050565b600080600060608486031215610fd457600080fd5b600084013567ffffffffffffffff811115610fee57600080fd5b610ffa86828701610f57565b935050602084013567ffffffffffffffff81111561101757600080fd5b61102386828701610f57565b925050604061103486828701610f42565b9150509250925092565b60006020828403121561105057600080fd5b600061105e84828501610f81565b91505092915050565b6000806040838503121561107a57600080fd5b600061108885828601610f81565b925050602061109985828601610f2d565b9150509250929050565b600080604083850312156110b657600080fd5b60006110c485828601610f81565b925050602083013567ffffffffffffffff8111156110e157600080fd5b6110ed85828601610f57565b9150509250929050565b600061110383836111e2565b60208301905092915050565b61111881611458565b82525050565b600061112982611389565b61113381856113ac565b935061113e83611379565b8060005b8381101561116f57815161115688826110f7565b97506111618361139f565b925050600181019050611142565b5085935050505092915050565b6111858161146a565b82525050565b611194816114c6565b82525050565b6111a3816114d8565b82525050565b60006111b482611394565b6111be81856113bd565b93506111ce8185602086016114f9565b6111d781611663565b840191505092915050565b6111eb816114bc565b82525050565b6111fa816114bc565b82525050565b6000602082019050611215600083018461110f565b92915050565b60006020820190508181036000830152611235818461111e565b905092915050565b6000602082019050611252600083018461117c565b92915050565b6000606082019050818103600083015261127281866111a9565b9050818103602083015261128681856111a9565b9050611295604083018461119a565b949350505050565b60006020820190506112b260008301846111f1565b92915050565b60006040820190506112cd60008301856111f1565b6112da602083018461118b565b9392505050565b60006060820190506112f660008301866111f1565b61130360208301856111f1565b611310604083018461118b565b949350505050565b6000604051905081810181811067ffffffffffffffff8211171561133f5761133e611634565b5b8060405250919050565b600067ffffffffffffffff82111561136457611363611634565b5b601f19601f8301169050602081019050919050565b6000819050602082019050919050565b600081519050919050565b600081519050919050565b6000602082019050919050565b600082825260208201905092915050565b600082825260208201905092915050565b60006113d9826114bc565b91506113e4836114bc565b9250827fffffffffffffffffffffffffffffffffffffffffffffffffffffffffffffffff03821115611419576114186115a7565b5b828201905092915050565b600061142f826114bc565b915061143a836114bc565b92508282101561144d5761144c6115a7565b5b828203905092915050565b60006114638261149c565b9050919050565b60008115159050919050565b600081905061148482611674565b919050565b600081905061149782611688565b919050565b600073ffffffffffffffffffffffffffffffffffffffff82169050919050565b6000819050919050565b60006114d182611476565b9050919050565b60006114e382611489565b9050919050565b82818337600083830152505050565b60005b838110156115175780820151818401526020810190506114fc565b83811115611526576000848401525b50505050565b6000600282049050600182168061154457607f821691505b6020821081141561155857611557611605565b5b50919050565b6000611569826114bc565b91507fffffffffffffffffffffffffffffffffffffffffffffffffffffffffffffffff82141561159c5761159b6115a7565b5b600182019050919050565b7f4e487b7100000000000000000000000000000000000000000000000000000000600052601160045260246000fd5b7f4e487b7100000000000000000000000000000000000000000000000000000000600052602160045260246000fd5b7f4e487b7100000000000000000000000000000000000000000000000000000000600052602260045260246000fd5b7f4e487b7100000000000000000000000000000000000000000000000000000000600052604160045260246000fd5b6000601f19601f8301169050919050565b60028110611685576116846115d6565b5b50565b60028110611699576116986115d6565b5b50565b6116a581611458565b81146116b057600080fd5b50565b600281106116c057600080fd5b50565b600281106116d057600080fd5b50565b6116dc816114bc565b81146116e757600080fd5b5056fea26469706673582212208f1cc90b59ca3bc3658372e17833924f70c72fbb636be0be468b3dce42d5944564736f6c63430008000033",
  "linkReferences": {},
  "deployedLinkReferences": {}
}