{
  "_format": "hh-sol-artifact-1",
  "contractName": "DeviceFactory",
  "sourceName": "contracts/DeviceFactory.sol",
  "abi": [
    {
      "anonymous": false,
      "inputs": [
        {
          "indexed": true,
          "internalType": "uint256",
          "name": "deviceId",
          "type": "uint256"
        },
        {
          "indexed": false,
          "internalType": "string",
          "name": "name",
          "type": "string"
        },
        {
          "indexed": false,
          "internalType": "string",
          "name": "localisation",
          "type": "string"
        },
        {
          "indexed": false,
          "internalType": "enum DeviceFactory.Status",
          "name": "status",
          "type": "uint8"
        }
      ],
      "name": "NewDevice",
      "type": "event"
    },
    {
      "anonymous": false,
      "inputs": [
        {
          "indexed": true,
          "internalType": "address",
          "name": "previousOwner",
          "type": "address"
        },
        {
          "indexed": true,
          "internalType": "address",
          "name": "newOwner",
          "type": "address"
        }
      ],
      "name": "OwnershipTransferred",
      "type": "event"
    },
    {
      "inputs": [
        {
          "internalType": "string",
          "name": "_name",
          "type": "string"
        },
        {
          "internalType": "string",
          "name": "_localisation",
          "type": "string"
        },
        {
          "internalType": "enum DeviceFactory.Status",
          "name": "_status",
          "type": "uint8"
        }
      ],
      "name": "createDevice",
      "outputs": [],
      "stateMutability": "nonpayable",
      "type": "function"
    },
    {
      "inputs": [
        {
          "internalType": "uint256",
          "name": "",
          "type": "uint256"
        }
      ],
      "name": "deviceToOwner",
      "outputs": [
        {
          "internalType": "address",
          "name": "",
          "type": "address"
        }
      ],
      "stateMutability": "view",
      "type": "function"
    },
    {
      "inputs": [
        {
          "internalType": "uint256",
          "name": "",
          "type": "uint256"
        }
      ],
      "name": "devices",
      "outputs": [
        {
          "internalType": "string",
          "name": "name",
          "type": "string"
        },
        {
          "internalType": "string",
          "name": "localisation",
          "type": "string"
        },
        {
          "internalType": "enum DeviceFactory.Status",
          "name": "status",
          "type": "uint8"
        }
      ],
      "stateMutability": "view",
      "type": "function"
    },
    {
      "inputs": [],
      "name": "isOwner",
      "outputs": [
        {
          "internalType": "bool",
          "name": "",
          "type": "bool"
        }
      ],
      "stateMutability": "view",
      "type": "function"
    },
    {
      "inputs": [],
      "name": "owner",
      "outputs": [
        {
          "internalType": "address",
          "name": "",
          "type": "address"
        }
      ],
      "stateMutability": "view",
      "type": "function"
    },
    {
      "inputs": [],
      "name": "renounceOwnership",
      "outputs": [],
      "stateMutability": "nonpayable",
      "type": "function"
    },
    {
      "inputs": [
        {
          "internalType": "address",
          "name": "newOwner",
          "type": "address"
        }
      ],
      "name": "transferOwnership",
      "outputs": [],
      "stateMutability": "nonpayable",
      "type": "function"
    }
  ],
  "bytecode": "0x608060405234801561001057600080fd5b50336000806101000a81548173ffffffffffffffffffffffffffffffffffffffff021916908373ffffffffffffffffffffffffffffffffffffffff16021790555060008054906101000a900473ffffffffffffffffffffffffffffffffffffffff1673ffffffffffffffffffffffffffffffffffffffff16600073ffffffffffffffffffffffffffffffffffffffff167f8be0079c531659141344cd1fd0a4f28419497f9722a3daafe3b4186f6b6457e060405160405180910390a3610e3b806100db6000396000f3fe608060405234801561001057600080fd5b506004361061007d5760003560e01c80638f32d59b1161005b5780638f32d59b146100dc578063b5deb324146100fa578063c9ffce7e14610116578063f2fde38b146101465761007d565b806310ff8e3114610082578063715018a6146100b45780638da5cb5b146100be575b600080fd5b61009c600480360381019061009791906109f4565b610162565b6040516100ab93929190610ab9565b60405180910390f35b6100bc6102b9565b005b6100c6610388565b6040516100d39190610a83565b60405180910390f35b6100e46103b1565b6040516100f19190610a9e565b60405180910390f35b610114600480360381019061010f9190610975565b610408565b005b610130600480360381019061012b91906109f4565b61061c565b60405161013d9190610a83565b60405180910390f35b610160600480360381019061015b919061094c565b61064f565b005b6001818154811061017257600080fd5b906000526020600020906003020160009150905080600001805461019590610cb4565b80601f01602080910402602001604051908101604052809291908181526020018280546101c190610cb4565b801561020e5780601f106101e35761010080835404028352916020019161020e565b820191906000526020600020905b8154815290600101906020018083116101f157829003601f168201915b50505050509080600101805461022390610cb4565b80601f016020809104026020016040519081016040528092919081815260200182805461024f90610cb4565b801561029c5780601f106102715761010080835404028352916020019161029c565b820191906000526020600020905b81548152906001019060200180831161027f57829003601f168201915b5050505050908060020160009054906101000a900460ff16905083565b6102c16103b1565b6102ca57600080fd5b600073ffffffffffffffffffffffffffffffffffffffff1660008054906101000a900473ffffffffffffffffffffffffffffffffffffffff1673ffffffffffffffffffffffffffffffffffffffff167f8be0079c531659141344cd1fd0a4f28419497f9722a3daafe3b4186f6b6457e060405160405180910390a360008060006101000a81548173ffffffffffffffffffffffffffffffffffffffff021916908373ffffffffffffffffffffffffffffffffffffffff160217905550565b60008060009054906101000a900473ffffffffffffffffffffffffffffffffffffffff16905090565b60008060009054906101000a900473ffffffffffffffffffffffffffffffffffffffff1673ffffffffffffffffffffffffffffffffffffffff163373ffffffffffffffffffffffffffffffffffffffff1614905090565b6001604051806060016040528085815260200184815260200183600181111561045a577f4e487b7100000000000000000000000000000000000000000000000000000000600052602160045260246000fd5b815250908060018154018082558091505060019003906000526020600020906003020160009091909190915060008201518160000190805190602001906104a2929190610802565b5060208201518160010190805190602001906104bf929190610802565b5060408201518160020160006101000a81548160ff02191690836001811115610511577f4e487b7100000000000000000000000000000000000000000000000000000000600052602160045260246000fd5b0217905550505060006105326001808054905061066c90919063ffffffff16565b9050336002600083815260200190815260200160002060006101000a81548173ffffffffffffffffffffffffffffffffffffffff021916908373ffffffffffffffffffffffffffffffffffffffff1602179055506105d96001600360003373ffffffffffffffffffffffffffffffffffffffff1673ffffffffffffffffffffffffffffffffffffffff168152602001908152602001600020546106b990919063ffffffff16565b50807f472f7a60d569a042d12006fd6c9aea3f09ce5c8677c6bcb9c7662499678dfc5c85858560405161060e93929190610ab9565b60405180910390a250505050565b60026020528060005260406000206000915054906101000a900473ffffffffffffffffffffffffffffffffffffffff1681565b6106576103b1565b61066057600080fd5b6106698161070b565b50565b6000828211156106a5577f4e487b7100000000000000000000000000000000000000000000000000000000600052600160045260246000fd5b81836106b19190610bd1565b905092915050565b60008082846106c89190610b7b565b905083811015610701577f4e487b7100000000000000000000000000000000000000000000000000000000600052600160045260246000fd5b8091505092915050565b600073ffffffffffffffffffffffffffffffffffffffff168173ffffffffffffffffffffffffffffffffffffffff16141561074557600080fd5b8073ffffffffffffffffffffffffffffffffffffffff1660008054906101000a900473ffffffffffffffffffffffffffffffffffffffff1673ffffffffffffffffffffffffffffffffffffffff167f8be0079c531659141344cd1fd0a4f28419497f9722a3daafe3b4186f6b6457e060405160405180910390a3806000806101000a81548173ffffffffffffffffffffffffffffffffffffffff021916908373ffffffffffffffffffffffffffffffffffffffff16021790555050565b82805461080e90610cb4565b90600052602060002090601f0160209004810192826108305760008555610877565b82601f1061084957805160ff1916838001178555610877565b82800160010185558215610877579182015b8281111561087657825182559160200191906001019061085b565b5b5090506108849190610888565b5090565b5b808211156108a1576000816000905550600101610889565b5090565b60006108b86108b384610b2f565b610afe565b9050828152602081018484840111156108d057600080fd5b6108db848285610c72565b509392505050565b6000813590506108f281610dc7565b92915050565b60008135905061090781610dde565b92915050565b600082601f83011261091e57600080fd5b813561092e8482602086016108a5565b91505092915050565b60008135905061094681610dee565b92915050565b60006020828403121561095e57600080fd5b600061096c848285016108e3565b91505092915050565b60008060006060848603121561098a57600080fd5b600084013567ffffffffffffffff8111156109a457600080fd5b6109b08682870161090d565b935050602084013567ffffffffffffffff8111156109cd57600080fd5b6109d98682870161090d565b92505060406109ea868287016108f8565b9150509250925092565b600060208284031215610a0657600080fd5b6000610a1484828501610937565b91505092915050565b610a2681610c05565b82525050565b610a3581610c17565b82525050565b610a4481610c60565b82525050565b6000610a5582610b5f565b610a5f8185610b6a565b9350610a6f818560208601610c81565b610a7881610da2565b840191505092915050565b6000602082019050610a986000830184610a1d565b92915050565b6000602082019050610ab36000830184610a2c565b92915050565b60006060820190508181036000830152610ad38186610a4a565b90508181036020830152610ae78185610a4a565b9050610af66040830184610a3b565b949350505050565b6000604051905081810181811067ffffffffffffffff82111715610b2557610b24610d73565b5b8060405250919050565b600067ffffffffffffffff821115610b4a57610b49610d73565b5b601f19601f8301169050602081019050919050565b600081519050919050565b600082825260208201905092915050565b6000610b8682610c56565b9150610b9183610c56565b9250827fffffffffffffffffffffffffffffffffffffffffffffffffffffffffffffffff03821115610bc657610bc5610ce6565b5b828201905092915050565b6000610bdc82610c56565b9150610be783610c56565b925082821015610bfa57610bf9610ce6565b5b828203905092915050565b6000610c1082610c36565b9050919050565b60008115159050919050565b6000819050610c3182610db3565b919050565b600073ffffffffffffffffffffffffffffffffffffffff82169050919050565b6000819050919050565b6000610c6b82610c23565b9050919050565b82818337600083830152505050565b60005b83811015610c9f578082015181840152602081019050610c84565b83811115610cae576000848401525b50505050565b60006002820490506001821680610ccc57607f821691505b60208210811415610ce057610cdf610d44565b5b50919050565b7f4e487b7100000000000000000000000000000000000000000000000000000000600052601160045260246000fd5b7f4e487b7100000000000000000000000000000000000000000000000000000000600052602160045260246000fd5b7f4e487b7100000000000000000000000000000000000000000000000000000000600052602260045260246000fd5b7f4e487b7100000000000000000000000000000000000000000000000000000000600052604160045260246000fd5b6000601f19601f8301169050919050565b60028110610dc457610dc3610d15565b5b50565b610dd081610c05565b8114610ddb57600080fd5b50565b60028110610deb57600080fd5b50565b610df781610c56565b8114610e0257600080fd5b5056fea2646970667358221220506f30f05e0cee8dd873e0a361eb92c6b130032109b5879b65d68d14cb55a5d964736f6c63430008000033",
  "linkReferences": {},
  "deployedLinkReferences": {}
}